:100000000C94C7010C94E4010C94E4010C94E401F9
:100010000C94E4010C94E4010C94E4010C94E401CC
:100020000C94E4010C94E4010C94E4010C94E401BC
:100030000C94E4010C94E4010C94E4010C94E401AC
:100040000C94E4010C94E4010C94E4010C94E4019C
:100050000C94E4010C94E4010C94E4010C94EC087D
:100060000C94E4010C94E4010C94E4010C94E4017C
:100070000C94E4010C94E4010C94E4010C94E4016C
:100080000C94E4010C94E4010C94E4010C94E4015C
:100090000C94E4010C94E4010C94E4010C94E4014C
:1000A0000C94E4010C94E4010C94E4016E616E0084
:1000B000696E6600000000000000005F000000079D
:1000C000000700147F147F14242A7F2A12231308A8
:1000D000646236495522500005030000001C22418D
:1000E000000041221C0014083E081408083E0808BD
:1000F0000050300000080808080800606000002078
:10010000100804023E5149453E00427F40004261D2
:100110005149462141454B311814127F102745455E
:1001200045393C4A49493001710905033649494975
:1001300036064949291E00363600000056360000B2
:10014000081422410014141414140041221408024B
:1001500001510906324979413E7E1111117E7F49D4
:100160004949363E414141227F4141221C7F494954
:1001700049417F090909013E4149497A7F08080838
:100180007F00417F41002040413F017F0814224110
:100190007F404040407F020C027F7F0408107F3E7A
:1001A0004141413E7F090909063E4151215E7F09D7
:1001B000192946464949493101017F01013F404023
:1001C000403F1F2040201F3F4038403F6314081429
:1001D0006307087008076151494543007F414100AA
:1001E00002040810200041417F0004020102044083
:1001F00040404040000102040020545454787F489D
:100200004444383844444420384444487F385454A3
:100210005418087E0901020C5252523E7F08040411
:100220007800447D40002040443D007F1028440079
:1002300000417F40007C041804787C08040478386E
:10024000444444387C14141408081414187C7C08A2
:100250000404084854545420043F4440203C404087
:10026000207C1C2040201C3C4030403C442810286E
:10027000440C5050503C4464544C440008364100F7
:1002800000007F00000041360800100808100878C0
:100290004641467800407A10F35A00A0724E180981
:1002A0000010A5D4E80000E87648170000E40B54DD
:1002B000020000CA9A3B000000E1F50500008096AC
:1002C0009800000040420F000000A08601000000DE
:1002D000102700000000E803000000006400000098
:1002E00000000A00000000000100000000002C7661
:1002F000D888DC674F0823DFC1DFAE59E1B1B7967C
:10030000E5E3E453C63AE651997696E8E6C28426D8
:10031000EB898C9B62ED407C6FFCEFBC9C9F40F2B4
:10032000BAA56FA5F490055A2AF75C936B6CF96730
:100330006DC11BFCE0E40D47FEF520E6B500D0EDF5
:10034000902E0300943577050080841E080000205D
:100350004E0A000000C80C333333330F986E1283FB
:100360001141EF8D2114893BE65516CFFEE6DB18CF
:10037000D1844B381BF77C1D901DA4BBE424203294
:1003800084725E228100C9F124ECA1E53D2711248D
:100390001FBECFEFDAE0DEBFCDBF11E0A0E0B1E0DD
:1003A000E8E8FAE202C005900D92A036B107D9F74D
:1003B00015E0A0E6B1E001C01D92A931B107E1F757
:1003C0000E9453090C9442150C940000CF93E1E66F
:1003D000F0E080E88083C1E0C0838FE30E94F20EEA
:1003E00084B18D7784B98AB18C7F8AB9819880B3C2
:1003F0008F7980BB84B18C6084B980E480937C0069
:1004000087E880937A0085B5856085BDC0936E00CE
:100410007894CF910895809164019091650101973E
:1004200009F045C08091620190916301029739F112
:1004300081E090E0909363018093620120918501B7
:1004400030918601409187015091880160917D0132
:1004500070917E0180917F01909180010E94FC0F3C
:1004600060937D0170937E0180937F019093800162
:100470008FE19EE40197F1F700C0000018C0809161
:100480000F019091100101979093100180930F013B
:1004900020910B0130910C01EFE8F1E080E090E059
:1004A000821793072CF6108201967596F9CF20E0FB
:1004B00030E04CE952E460917D0170917E018091C1
:1004C0007F01909180010E941612181664F480E05A
:1004D00090E0A0E0B0EC80937D0190937E01A0932A
:1004E0007F01B09380018091640190916501029732
:1004F00009F045C08091620190916301019739F143
:1005000082E090E0909363018093620120918501E5
:1005100030918601409187015091880160917D0161
:1005200070917E0180917F01909180010E94FD0F6A
:1005300060937D0170937E0180937F019093800191
:100540008FE19EE40197F1F700C0000018C0809190
:100550000F019091100101979093100180930F016A
:1005600020910B0130910C01EFE8F1E080E090E088
:10057000821793072CF6108201967596F9CF20E02A
:1005800030E040E050EC60917D0170917E018091FF
:100590007F01909180010E94741087FF0CC080E061
:1005A00090E0ACE9B2E480937D0190937E01A0934A
:1005B0007F01B09380018091640190916501039760
:1005C00009F045C08091620190916301049739F16F
:1005D00083E090E090936301809362012091890110
:1005E00030918A0140918B0150918C016091810181
:1005F0007091820180918301909184010E94FC0F8F
:1006000060938101709382018093830190938401B0
:100610008FE19EE40197F1F700C0000018C08091BF
:100620000F019091100101979093100180930F0199
:1006300020910B0130910C01EFE8F1E080E090E0B7
:10064000821793072CF6108201967596F9CF20E059
:1006500030E040E352E46091810170918201809129
:100660008301909184010E941612181664F480E0B0
:1006700090E0A0E2B1E48093810190938201A09385
:100680008301B09384018091640190916501049786
:1006900009F045C08091620190916301039739F19F
:1006A00084E090E09093630180936201209189013E
:1006B00030918A0140918B0150918C0160918101B0
:1006C0007091820180918301909184010E94FD0FBD
:1006D00060938101709382018093830190938401E0
:1006E0008FE19EE40197F1F700C0000018C08091EF
:1006F0000F019091100101979093100180930F01C9
:1007000020910B0130910C01EFE8F1E080E090E0E6
:10071000821793072CF6108201967596F9CF20E088
:1007200030E040E251E4609181017091820180915A
:100730008301909184010E94741087FF0CC080E0B7
:1007400090E0A0E3B2E48093810190938201A093B2
:100750008301B093840108958091640190916501B3
:10076000892B41F180910B0190910C0125E1289F8B
:10077000F001299FF00D1124E358FE4F75971816CC
:100780001906C4F401974081518162817381458BC0
:10079000568B678B708F4481558166817781418F3D
:1007A000528F638F748FAFE1BEE41197F1F700C0F1
:1007B0000000E4CF08950F931F93CF93DF930DE7CD
:1007C00011E0C0E0D0E080910B0190910C01C817BE
:1007D000D9073CF4C8010E945F0F21960B5E1F4FA2
:1007E000F2CFDF91CF911F910F910895CF93DF93B7
:1007F00080916001909161010197B1F4CAE0DCE35E
:1008000041E06C2F82E10E94050D41E06EE187E33B
:100810008C0F0E94050D6D2F6C1B41E082E30E943E
:10082000050DCF5FCE3161F7DF91CF91089520E0C4
:1008300043E560E080E00E942A0D2FE243E560E09E
:1008400083E50E942A0D2FE240E06FE283E50E94DB
:100850002A0D20E040E06FE280E00C942A0DFF9228
:100860000F931F93CF93DF93CDB7DEB765970FB686
:10087000F894DEBF0FBECDBFF62E9F938F9385E118
:1008800091E09F938F938E010F5F1F4F1F930F93E4
:100890007D8B0E945E14A80162E083E00E94BD0E81
:1008A0002AE044E160E084E10E942A0D7D897F9383
:1008B000FF928AE191E09F938F931F930F930E9481
:1008C0005E14A80162E087E10E94BD0E2AE04DE2BD
:1008D00060E08DE20E942A0D80910E018F9380913D
:1008E0000D018F9381E291E09F938F931F930F935C
:1008F0000E945E14A80162E084E30E94BD0E2AE01B
:1009000043E56AE080E00E942A0D0FB6F894DEBF4E
:100910000FBECDBF65960FB6F894DEBF0FBECDBF3C
:10092000DF91CF911F910F91FF9008957F928F9249
:100930009F92AF92BF92CF92DF92EF92FF920F936E
:100940001F93CF93DF93CFE8D1E00DE711E08AE268
:10095000C82ED12CE12CF12C812C912C98E1A92EC0
:1009600092E4B92E7724739480910B0190910C013D
:10097000E816F9060CF04FC08881811142C0109230
:100980006301109262011092650110926401B60138
:10099000882777FD8095982F0E941311F8016083B6
:1009A00071838283938384829582A682B782209109
:1009B00068013091690140916A0150916B010E9478
:1009C000FC0F0E94E0106C5F7F4F69307105C0F42E
:1009D00020916C0130916D0140916E0150916F0139
:1009E00060E070E088E192E40E94FC0F0E94E01059
:1009F0006C5F7F4F6930710518F40E94960401C046
:100A00007882FFEFEF1AFF0A65960B5E1F4F83E0B7
:100A1000C81AD108A9CFDF91CF911F910F91FF90F4
:100A2000EF90DF90CF90BF90AF909F908F907F908E
:100A30000895CF92DF92EF92FF920F931F93CF937F
:100A4000DF93C1E5D0E00EE110E080917A018111E1
:100A5000ECC00E942813BE010E947D12BC016E5F93
:100A60007F4F882777FD8095982F0E941311609300
:100A700068017093690180936A0190936B010E94F1
:100A80002813B8010E947D12BC01645F7F4F882744
:100A900077FD8095982F0E9413116B017C01609364
:100AA0006C0170936D0180936E0190936F01809142
:100AB000600190916101019709F081C020E030E070
:100AC00040E951E4609168017091690180916A0187
:100AD00090916B010E947410811116C020E030E0EB
:100AE00040E251E4C701B6010E94161287FD0CC016
:100AF00020E030E040EF51E4C701B6010E947410DD
:100B0000181614F00E94190520E030E048E452E481
:100B1000609168017091690180916A0190916B0107
:100B20000E94741081111DC0C0906C01D0906D01A5
:100B3000E0906E01F0906F0120E030E048E452E474
:100B4000C701B6010E94741018165CF020E030E076
:100B500040EF51E4C701B6010E94161287FF0E94C0
:100B6000190520E030E040EF51E460916C01709194
:100B70006D0180916E0190916F010E94741081113E
:100B80001EC0C0906801D0906901E0906A01F090A9
:100B90006B0120E030E042E852E4C701B6010E9458
:100BA000161287FD0CC020E030E04AEA52E4C7018B
:100BB000B6010E947410181614F00E9419052091B5
:100BC0007D0130917E0140917F01509180016091C3
:100BD00068017091690180916A0190916B010E9496
:100BE000FC0F0E94E010695F7F4F6F307105D0F4F9
:100BF00020918101309182014091830150918401C3
:100C000060916C0170916D0180916E0190916F0106
:100C10000E94FC0F0E94E010695F7F4F6F307105EA
:100C200008F413CF81E080937A01DF91CF911F9177
:100C30000F91FF90EF90DF90CF9008954F925F92C9
:100C40006F927F928F929F92AF92BF92CF92EF92CC
:100C50000F931F93CF93DF9383E090E09093100165
:100C600080930F01109267011092660180E090E07E
:100C70000E942D1333E0A32E31E0B32E48E0C42EA2
:100C800058E0E52E00E010E09801B901A80188E6DF
:100C900091E00E943B0FCDE7D1E0812C912C63E3E2
:100CA000462E542C642C6FE3762E80910B0190918C
:100CB0000C018816990604F580E0A82E81E0B82E74
:100CC00093E0C92E25E0E22E00E010E09801B90182
:100CD000A801CE010E943B0F488659866A867B8612
:100CE0004C865D866E867F8610927A011A8A8FEF17
:100CF000881A980A6596D9CF0E941905DF91CF917D
:100D00001F910F91EF90CF90BF90AF909F908F90D9
:100D10007F906F905F904F900C9496044F925F92EB
:100D20006F927F928F929F92AF92BF92CF92DF92FB
:100D3000EF92FF920F931F93CF93DF93CDB7DEB760
:100D400028970FB6F894DEBF0FBECDBFC0907D01CF
:100D5000D0907E01E0907F01F0908001809068014A
:100D600090906901A0906A01B0906B0120E030E0A2
:100D700040E450E4C501B4010E94FD0F69837A8309
:100D80008B839C839B01AC01C701B6010E94741048
:100D900000916001109161011816B4F1A501940150
:100DA000C701B6010E94161287FD2EC04090810136
:100DB00050908201609083017090840180916C0159
:100DC00090916D01A0916E01B0916F018D839E8312
:100DD000AF83B88720E030E040E450E4BC01CD01AF
:100DE0000E94FD0F9B01AC01C301B2010E9474106F
:100DF000181654F02D813E814F815885C301B201F0
:100E00000E94161287FF49C020E030E040E450E421
:100E1000C701B6010E94FD0F2B013C0129813A81D7
:100E20004B815C810E94741018160CF44BC0A50114
:100E30009401C301B2010E94161287FD43C020E055
:100E400030E040E450E46091810170918201809132
:100E50008301909184010E94FD0F4B015C01409041
:100E60006C0150906D0160906E0170906F01A30154
:100E700092010E94161287FD25C020E030E040E478
:100E800050E4C301B2010E94FD0F9B01AC01C501FA
:100E9000B4010E9474101816ACF080916601909114
:100EA00067019C012F5F3F4F3093670120936601DC
:100EB0000130110529F40296909367018093660131
:100EC00010927A010130110509F0EAC020E030E00B
:100ED00040E851E4C701B6010E94161287FF0BC01B
:100EE00020E030E040E452E4C701B6010E9416124F
:100EF00087FF40C049C020E030E040E951E4C7012D
:100F0000B6010E94741018165CF3809081019090D5
:100F10008201A0908301B090840120E030E040E2A3
:100F200051E4C501B4010E9416121816CCF620E057
:100F300030E040E052E4C501B4010E94741018167C
:100F40007CF280910F019091100101979093100114
:100F500080930F0120910B0130910C01EFE8F1E03B
:100F600080E090E0821793070CF0BACF10820196D0
:100F70007596F8CF20E030E048E452E4C701B601AE
:100F80000E94741018169CF4809081019090820148
:100F9000A0908301B090840120E030E040EE51E465
:100FA000C501B4010E94161287FF3DC079C0809030
:100FB000810190908201A0908301B090840120E093
:100FC00030E048E452E4C501B4010E94741087FF88
:100FD000DBCF20E030E040EE51E4C501B4010E94D7
:100FE000161287FDD1CF80910B0190910C012091B9
:100FF0000F0130911001EFE8F1E040E050E04817B8
:1010000059072CF410824F5F5F4F7596F8CF97FF0A
:1010100002C080E090E0D901A81BB90BB093100189
:10102000A0930F01B1CF20E030E040EF51E4C501C3
:10103000B4010E94741018169CF120E030E042E8E0
:1010400052E4C701B6010E94161218164CF520E0B2
:1010500030E04CEA52E4C701B6010E947410181641
:10106000FCF080910B0190910C0120910F013091C7
:101070001001EFE8F1E040E050E0481759072CF488
:1010800010824F5F5F4F7596F8CF97FF02C080E0E8
:1010900090E0F901E81BF90BF0931001E0930F01C8
:1010A00028960FB6F894DEBF0FBECDBFDF91CF916B
:1010B0001F910F91FF90EF90DF90CF90BF90AF9076
:1010C0009F908F907F906F905F904F900895AB01AD
:1010D00020E0FA01E20FF11D9081992311F02F5FBA
:1010E000F8CF95E0299F90011124359527953195EA
:1010F00021953109265D27FD20E0682F822F0C9471
:10110000BD0E80910F0190911001181619068CF1F7
:1011100066E271E08FE00E94670861E371E089E1B7
:101120000E9467080E94EA0C2FEF8DE399E421509A
:1011300080409040E1F700C000000E94FD0C83E079
:1011400090E090930C0180930B0110926501109236
:10115000640110926101109260018FE391E090931D
:101160000E0180930D0110926301109262010C94A4
:10117000E80808950E94FD0C0E9481080E948E06D6
:101180000E9419050E9496040E94F60388E691E0E9
:101190000E945F0F0E94DB030E94170460916601AA
:1011A0007091670180910F01909110010E942F04AE
:1011B0000E940B020E94AC030E94EA0C2FE788E316
:1011C00091E0215080409040E1F700C00000D2CF74
:1011D0000E941E060E94BA081F920F920FB60F922D
:1011E00011248F939F93AF93BF93199B06C081E007
:1011F00090E09093650180936401489B06C082E073
:1012000090E09093650180936401499B06C083E060
:1012100090E090936501809364011F9B06C084E079
:1012200090E090936501809364017D9B0CC081E008
:1012300090E090936101809360018CE591E0909340
:101240000E0180930D017E9B0AC0109261011092E5
:1012500060018FE391E090930E0180930D01799BE3
:1012600005C08AE999E9A9E9BEE304C083E393E3F1
:10127000A3E3BFE38093850190938601A093870148
:10128000B09388018093890190938A01A0938B0188
:10129000B0938C01BF91AF919F918F910F900FBE32
:1012A0000F901F9018950E94E60163E471E08FE0B3
:1012B0000E94670863E571E089E10E9467080E9467
:1012C000EA0C2FEF8DE399E4215080409040E1F744
:1012D00000C000000E94FD0C0E94E808A3E1B0E0FD
:1012E000E4E7F9E00C9491126C014B012A01FC0136
:1012F00017821682838181FF43C3AE014F5F5F4F28
:101300003A01F6019381F40193FD859193FF819158
:101310004F01882309F430C3853239F493FD859158
:1013200093FF81914F01853239F4B60190E00E941C
:10133000261452012501E5CF10E0F12C20E02032E7
:10134000A0F48B3269F030F4803259F0833269F4C2
:1013500020612CC08D3239F0803339F4216026C0F1
:101360002260246023C0286021C027FD27C030ED03
:10137000380F3A3078F426FF06C0FAE01F9F300D90
:101380001124132F13C04AE0F49E300D1124F32EC4
:1013900020620CC08E3221F426FDEEC2206406C00D
:1013A0008C3611F4206802C0883641F4F40193FDB4
:1013B000859193FF81914F018111C1CF9BEB980FD4
:1013C000933018F42061805E06C09BE9980F93303B
:1013D00008F071C12F7E26FF16E02F73322E85365E
:1013E00019F42064322E08C0863621F4F22FF068FA
:1013F0003F2E02C01111115037FE07C01C3350F4AC
:10140000EE24E394E10E27E00BC0183038F027E01B
:1014100017E005C027E04CE3E42E02C0212FE12CA9
:10142000520144E0A40EB11CF201608171818281FD
:1014300093810E2DA3010E9438132C01098100FF16
:1014400002C003FF07C031FC08C032FE09C030E211
:10145000232E07C02DE2222E04C09BE2292E01C0BC
:10146000212C802F8C7019F0211068C2A8C237FE81
:101470000FC0E40C04FF04C08A81813309F4EA94AC
:101480001E1474F5F8E0FE1578F588E0E82E2CC0FF
:1014900036FC2AC0812F90E0841595059CF02CEF36
:1014A00042162FEF520674F0432D4068342E0AC0C6
:1014B000E2E0F0E0EC0FFD1FE10FF11D80818033D1
:1014C00019F411501111F4CF37FE0EC0EE24E3943D
:1014D000E10E812F90E0481659062CF4141904C02F
:1014E000EE24E39401C010E037FE06C01414150486
:1014F00034F4C201019605C085E090E002C081E0AD
:1015000090E021100196112331F0212F30E02F5F60
:101510003F4F820F931F2F2D30E08217930714F453
:10152000F81A01C0F12C832D897049F4FF2039F09D
:10153000B60180E290E00E942614FA94F7CF2220B0
:1015400029F0B601822D90E00E94261433FC09C0D8
:10155000FF2039F0B60180E390E00E942614FA944F
:10156000F7CF37FE5AC0942D852D57FE02C090E06C
:1015700080E0292E382E20E030E0A2014E195109DA
:101580005D874C87A201421953095F874E87612FFF
:1015900070E044275527461B570B598B488B5FEF4C
:1015A0002516350649F4B6018EE290E02A8B3B8B76
:1015B0000E9426143B892A89421453046CF04C85FE
:1015C0005D854215530544F4EE85FF85E20FF31F58
:1015D000E60DF71D818101C080E351E0251A310835
:1015E0002F5F3F4F48895989241635064CF0B601C4
:1015F00090E02A8B3B8B0E9426142A893B89CFCF0F
:101600002414350439F49A81963318F4953311F47F
:1016100004FF81E3B60190E04BC08A81813309F079
:101620000F7EB60190E00E942614111105C034FC13
:1016300018C085E690E017C0B6018EE290E00E94E7
:10164000261482E0EE24E394E80EF301E80FF11D86
:101650008081B60190E00E94261411508E2D91F7E2
:10166000E6CF85E490E0B6010E94261457FC05C041
:101670004114510439F404FF05C0519441945108B8
:101680008DE201C08BE2B60190E00E94261480E357
:101690009AE0491651042CF08F5F5AE0451A510820
:1016A000F7CFB60190E00E942614B601C201C096A1
:1016B0000E94261457C1833631F0833779F0833581
:1016C00009F058C021C05201E2E0AE0EB11CF20197
:1016D0008081898301E010E0230114C05201F2E00F
:1016E000AF0EB11CF2014080518026FF03C0612F74
:1016F00070E002C06FEF7FEFC2012A8B0E941B14C3
:101700008C012A892F7715C05201F2E0AF0EB11C6F
:10171000F2014080518026FF03C0612F70E002C0BB
:101720006FEF7FEFC2012A8B0E9410148C012A896F
:101730002068322E23FD1AC08F2D90E0081719075C
:10174000A8F4B60180E290E00E942614FA94F4CF47
:10175000F20137FC859137FE81912F01B60190E0AF
:101760000E942614F110FA94015011090115110577
:1017700079F7F8C0843611F0893659F5520127FF00
:1017800009C0F4E0AF0EB11CF20160817181828169
:1017900093810AC0F2E0AF0EB11CF2016081718149
:1017A000882777FD8095982F2F76322E97FF09C0D6
:1017B00090958095709561957F4F8F4F9F4F2068D2
:1017C000322E2AE030E0A3010E948114E82EE618B0
:1017D0003FC0022F853721F40F7E2AE030E01DC084
:1017E000097F8F3691F018F4883559F0C5C08037DD
:1017F00019F0883711F0C0C0006104FF09C004600F
:1018000007C024FF08C0066006C028E030E005C01D
:1018100020E130E002C020E132E0520107FF09C0C0
:10182000F4E0AF0EB11CF20160817181828193817D
:1018300008C0F2E0AF0EB11CF2016081718180E05E
:1018400090E0A3010E948114E82EE6180F77302E55
:1018500036FE0BC0332D3E7FE11650F434FE0AC035
:1018600032FC08C0332D3E7E05C00E2D332D03C043
:101870000E2D01C0012F34FF0CC0FE01EE0DF11D35
:101880008081803311F4397E08C032FF05C00E5FBD
:1018900004C0832F867809F00F5F33FD13C030FF3B
:1018A00006C01E2D0F1518F41F0D101B0F2D0F1540
:1018B00068F4B60180E290E03B8B0E9426140F5F33
:1018C0003B89F5CF0F1510F4F01A01C0F12C34FF4D
:1018D00012C0B60180E390E03B8B0E9426143B8946
:1018E00032FF17C031FD03C088E790E002C088E5F1
:1018F00090E0B6010CC0832F867859F031FF02C00A
:101900008BE201C080E237FD8DE2B60190E00E94DB
:101910002614E11638F4B60180E390E00E94261404
:101920001150F7CFEA94F301EE0DF11D8081B6015D
:1019300090E00E942614E110F5CF14C0F4E0FF15EA
:1019400058F584E0F81A33FE1EC0211026C003FFAC
:101950002AC00CEA10E0F32DF0713F2EF8018491BB
:10196000811124C0FF2009F4E5CCB60180E290E0AB
:101970000E942614FA94F6CFF6018681978126C03C
:101980008FEF9FEF23C0B60180E290E00E94261403
:10199000FA94F110F8CFD9CFF12CB601822D90E056
:1019A0000E942614D4CF00EB10E0D5CF3110805226
:1019B000B60190E00E9426140F5F1F4FCFCF23E0A7
:1019C0002F1510F483E0BECFF12CC1CF6396E2E176
:1019D0000C94AD12CF93DF9360E080E00E942F0F54
:1019E000C1E2D3E0699181E00E94D40E85E0C93163
:1019F000D807C1F7DF91CF910895E1E2F3E01192AA
:101A000085E0E931F807D9F70895982F843508F56E
:101A10006033F8F4862F869586958695677024E561
:101A2000829FF0011124892F90E08E0F9F1FFC01EF
:101A3000EF5DFC4F81E090E001C0880F6A95EAF706
:101A4000442319F09081892B03C0809590818923CC
:101A5000808308952F923F924F925F926F927F9270
:101A60008F929F92AF92BF92CF92DF92EF92FF92AE
:101A70000F931F93CF93DF93CDB7DEB72D970FB69C
:101A8000F894DEBF0FBECDBFF82E262ED42EE22E48
:101A9000841320C0C62ED12C022F10E02E1468F41F
:101AA0000C151D050CF4FBC041E06C2D8F2D0E9420
:101AB000050D9FEFC91AD90AF1CFC016D1060CF453
:101AC000EEC041E06C2D8F2D0E94050DE1E0CE1A95
:101AD000D108E4CF082F10E0242F30E03D872C8779
:101AE0006E111EC0FD1470F48C859D8580179107C2
:101AF0000CF4D5C041E0622D802F0E94050D0F5FD0
:101B00001F4FF0CFEC85FD850E171F070CF4C7C0E3
:101B100041E0622D802F0E94050D01501109E2CF96
:101B20006C857D85601B710B882777FD8095982FCC
:101B30000E9413112B013C012E2D30E03E832D839A
:101B4000312CB90162197309882777FD8095982F88
:101B50000E9413114B015C01A30192010E947810B5
:101B600069837A838B839C8320E030E0A9010E9403
:101B7000161287FF0BC0A3019201C501B401905852
:101B80000E94781069837A838B839C83C12CD12C2B
:101B9000760120E030E0A901C301B2010E941612D3
:101BA00018160CF076C02C853D85201731070CF4F3
:101BB00076C00B8741E0622D802F0E94050D2981A0
:101BC0003A814B815C81C701B6010E94FD0F6B0118
:101BD0007C0120E030E040E05FE30E94161287FFC6
:101BE0000DC020E030E0A901C301B2010E9416122D
:101BF00018160CF04BC00F5F1F4FCBCF20E030E02A
:101C0000A901C501B4010E9416121816CCF58D81E8
:101C10009E81821593052CF341E0622D8B850E94F5
:101C2000050D81E090E098878F8320E030E0A901E6
:101C3000C501B4010E941612181614F018861F82EE
:101C4000E1E0F0E0FA87E98720E030E0A901C50192
:101C5000B4010E94741087FD02C01A8619868F8114
:101C6000988529853A85821B930B280E391E20E022
:101C700030E040E85FE3C701B6010E94FC0FA7CF48
:101C8000ED81FE812E163F063CF6ABCF01501109C7
:101C900080CF8C859D85081719070CF08ACF2D966B
:101CA0000FB6F894DEBF0FBECDBFDF91CF911F916D
:101CB0000F91FF90EF90DF90CF90BF90AF909F90EB
:101CC0008F907F906F905F904F903F902F900895EE
:101CD0007F928F929F92AF92BF92CF92DF92EF92BC
:101CE000FF920F931F93CF93DF93982E862E25E0BC
:101CF000429F7001112400E010E030EAE31AF1087D
:101D0000AA24A394B12CC701800F911F9C012C54CD
:101D10003F4F6901C0E0D0E0792C700EC830D1058A
:101D2000C9F0F601449150E095010C2E02C0220F3B
:101D3000331F0A94E2F7422353230C2E02C0559519
:101D400047950A94E2F76C2F680D872D0E94050DC8
:101D50002196E4CF0F5F1F4F05301105A1F6DF91EB
:101D6000CF911F910F91FF90EF90DF90CF90BF9098
:101D7000AF909F908F907F9008950F931F93CF9374
:101D8000DF93D62F8A01C82FF80141918F01442398
:101D900031F06D2F8C2F0E94680ECB5FF5CFDF9155
:101DA000CF911F910F91089525B130E2839FC0011B
:101DB00011242F7D822B85B95F9887E090E070E039
:101DC0008F989B01082E02C0359527950A94E2F75B
:101DD00020FF02C02E9A01C02E988F9A019780F79B
:101DE0005F9A0895CF93C82F579A249A259A269AD6
:101DF000879A2C985F9A2C9A61E280E00E94D40E18
:101E00006C2F606880E00E94D40E64E080E00E9445
:101E1000D40E63E180E00E94D40E6CE080E00E946A
:101E2000D40E60E280E00E94D40E6CE080E00E945C
:101E3000D40E60E480E00E94D40E60E880E0CF9190
:101E40000C94D40ECF93DF93C8EFD1E060E081E033
:101E50000E94D40E2197D1F7DF91CF910895CF93AF
:101E6000C82F606480E00E94D40E6C2F606880E010
:101E7000CF910C94D40EAF92BF92CF92EF920F936A
:101E80001F93FC0140835183628373830483158312
:101E900026833783E08AC18AB48AA38A81E0828B51
:101EA0001086118612861386148615861686178666
:101EB0001F910F91EF90CF90BF90AF9008956F92C8
:101EC0007F929F92AF92BF92CF92DF92EF92FF925A
:101ED0000F931F93CF93DF9300D000D0CDB7DEB721
:101EE000FC012289222309F475C03C01608970E05D
:101EF00080E090E00E94131120E030E040E05EE3DB
:101F00000E941A120E9461100E94E510962EA12CC8
:101F1000F3018189A81608F05DC0A99C6001112415
:101F2000B12CEE24D7FCE094FE2CF3018089B81686
:101F300008F04EC00B2D10E0B801882777FD809582
:101F4000982F0E94131120E030E040E05EE30E94F1
:101F50001A120E944E119B01AC01C701B6012983E0
:101F60003A834C835B830E94131129813A814C810F
:101F70005B810E94FD0F0E94E010F30123893489E8
:101F8000F901E60FF71F408150E0009510950770AA
:101F9000112702C0559547950A95E2F74170F30164
:101FA00064817581868197814C830E94E5101A2D8A
:101FB000160FF30160817181828193810E94E51087
:101FC000862F4C81612F8B0D0E94050DB394ADCFF0
:101FD000A3949ECF0F900F900F900F90DF91CF9111
:101FE0001F910F91FF90EF90DF90CF90BF90AF9037
:101FF0009F907F906F9008955058BB27AA270ED0CE
:10200000C4C1B5D130F0BAD120F031F49F3F11F402
:102010001EF4AAC10EF4E095E7FB77C1E92FC6D103
:1020200080F3BA17620773078407950718F071F4F5
:102030009EF5F5C10EF4E0950B2EBA2FA02D0B01E5
:10204000B90190010C01CA01A0011124FF27591BFD
:1020500099F0593F50F4503E68F11A16F040A22F03
:10206000232F342F4427585FF3CF46953795279574
:10207000A795F0405395C9F77EF41F16BA0B620B73
:10208000730B840BBAF09150A1F0FF0FBB1F661FBA
:10209000771F881FC2F70EC0BA0F621F731F841FFD
:1020A00048F4879577956795B795F7959E3F08F023
:1020B000B3CF9395880F08F09927EE0F97958795E2
:1020C000089596D180F09F3740F491110EF4A8C185
:1020D00060E070E080E89FE3089526F01B16611D24
:1020E000711D811D18C132C1ECD008F481E0089542
:1020F0000CD04BC143D140F03AD130F021F45F3FD6
:1021000019F003C151118CC12FC150D198F39923FB
:10211000C9F35523B1F3951B550BBB27AA276217AB
:102120007307840738F09F5F5F4F220F331F441FF0
:10213000AA1FA9F333D00E2E3AF0E0E830D0915028
:102140005040E695001CCAF729D0FE2F27D0660F15
:10215000771F881FBB1F261737074807AB07B0E854
:1021600009F0BB0B802DBF01FF2793585F4F2AF06A
:102170009E3F510568F0C9C053C15F3FECF3983EE4
:10218000DCF3869577956795B795F7959F5FC9F7C7
:10219000880F911D9695879597F90895E1E0660F50
:1021A000771F881FBB1F621773078407BA0720F0C9
:1021B000621B730B840BBA0BEE1F88F7E095089532
:1021C00004D06894B1112CC10895F8D088F09F57BD
:1021D00090F0B92F9927B751A0F0D1F0660F771F73
:1021E000881F991F1AF0BA95C9F712C0B13081F053
:1021F00016D1B1E0089513C1672F782F8827B85FF3
:1022000039F0B93FCCF3869577956795B395D9F7B3
:102210003EF490958095709561957F4F8F4F9F4FBD
:102220000895E89409C097FB3EF4909580957095C9
:1022300061957F4F8F4F9F4F9923A9F0F92F96E912
:10224000BB279395F695879577956795B795F11187
:10225000F8CFFAF4BB0F11F460FF1BC06F5F7F4F24
:102260008F4F9F4F16C0882311F096E911C0772336
:1022700021F09EE8872F762F05C0662371F096E83F
:10228000862F70E060E02AF09A95660F771F881F0E
:10229000DAF7880F9695879597F90895A9D080F079
:1022A0009F3740F491110EF0BBC060E070E080E811
:1022B0009FEB089526F41B16611D711D811D2BC017
:1022C00045C0990F0008550FAA0BE0E8FEEF16165F
:1022D0001706E807F907C0F012161306E407F5071A
:1022E00098F0621B730B840B950B39F40A2661F08E
:1022F000232B242B252B21F408950A2609F4A14031
:10230000A6958FEF811D811D089597F99F6780E83D
:1023100070E060E00895882371F4772321F09850ED
:10232000872B762F07C0662311F499270DC0905193
:10233000862B70E060E02AF09A95660F771F881F61
:10234000DAF7880F9695879597F908959F3F31F0B2
:10235000915020F4879577956795B795880F911DD3
:102360009695879597F908959FEF80EC089500243E
:102370000A941616170618060906089500240A94EA
:1023800012161306140605060895092E0394000C70
:1023900011F4882352F0BB0F40F4BF2B11F460FFFF
:1023A00004C06F5F7F4F8F4F9F4F089557FD905828
:1023B000440F551F59F05F3F71F04795880F97FB09
:1023C000991F61F09F3F79F08795089512161306C3
:1023D0001406551FF2CF4695F1DF08C016161706F2
:1023E0001806991FF1CF8695710561050894089527
:1023F000E5DFA0F0BEE7B91788F4BB279F3860F48B
:102400001616B11D672F782F8827985FF7CF86950E
:1024100077956795B11D93959639C8F30895E8941B
:10242000BB2766277727CB0197F908954ADF08F481
:102430008FEF08950BD0A9CF9ADF28F09FDF18F017
:10244000952309F062CF90CF1124EACFAFDFA0F33C
:10245000959FD1F3950F50E0551F629FF001729F39
:10246000BB27F00DB11D639FAA27F00DB11DAA1F58
:10247000649F6627B00DA11D661F829F2227B00DA5
:10248000A11D621F739FB00DA11D621F839FA00D30
:10249000611D221F749F3327A00D611D231F849F80
:1024A000600D211D822F762F6A2F11249F575040D7
:1024B0008AF0E1F088234AF0EE0FFF1FBB1F661F72
:1024C000771F881F91505040A9F79E3F510570F02B
:1024D0001CCFA6CF5F3FECF3983EDCF38695779553
:1024E0006795B795F795E7959F5FC1F7FE2B880F26
:1024F000911D9695879597F9089597FB072E16F4E9
:10250000009407D077FD09D00E94C81207FC05D0BF
:102510003EF4909581959F4F0895709561957F4FFA
:1025200008952F923F924F925F926F927F928F9277
:102530009F92AF92BF92CF92DF92EF92FF920F9352
:102540001F93CF93DF93CDB7DEB7CA1BDB0B0FB65C
:10255000F894DEBF0FBECDBF09942A883988488819
:102560005F846E847D848C849B84AA84B984C884AF
:10257000DF80EE80FD800C811B81AA81B981CE0FA6
:10258000D11D0FB6F894DEBF0FBECDBFED0108958B
:10259000AA1BBB1B51E107C0AA1FBB1FA617B70789
:1025A00010F0A61BB70B881F991F5A95A9F78095A5
:1025B0009095BC01CD0108958F929F92AF92BF92EA
:1025C000CF92DF92EF92FF92CF93DF93EC0168817D
:1025D00079818A819B81611571058105910521F4BD
:1025E00064E279ED8BE597E02DE133EF41E050E0D7
:1025F0000E94F21449015A019B01AC01A7EAB1E41F
:102600000E94DF146B017C01ACEEB4EFA5019401D4
:102610000E94ED14DC01CB018C0D9D1DAE1DBF1D74
:10262000B7FF03C00197A109B04888839983AA83A3
:10263000BB839F77DF91CF91FF90EF90DF90CF909A
:10264000BF90AF909F908F9008950E94DC120895E4
:1026500081E191E00E94DC120895A0E0B0E0809357
:10266000110190931201A0931301B09314010895E6
:10267000283008F027E03327DA01990F311D87FD54
:10268000916000966105710539F432602E5F3D93CB
:1026900030E32A95E1F708959F3F30F080387105C7
:1026A000610509F03C5F3C5F3D93913008F0806824
:1026B000911DDF93CF931F930F93FF92EF92192FEA
:1026C000987F9695E92F96959695E90FFF27E25109
:1026D000FD4F99273327EE24FF24A701E70105903A
:1026E0000894079428F4360FE71EF81E491F511D61
:1026F000660F771F881F991F0694A1F7059007940E
:1027000028F4E70EF81E491F561FC11D770F881FBA
:10271000991F661F0694A1F70590079428F4F80EF8
:10272000491F561FC71FD11D880F991F661F771F8E
:102730000694A1F70590079420F4490F561FC71F70
:10274000D81F990F661F771F881F0694A9F78491D9
:102750001095177041F0D695C79557954795F79402
:10276000E7941A95C1F7E4E9F2E0689415901591A1
:1027700035916591959105907FE27395E118F10A85
:10278000430B560BC90BD009C0F7E10CF11E431FD8
:10279000561FC91FD01D7EF4703311F48A95E6CF01
:1027A000E894015030F0080F0AF40027021708F4EB
:1027B000202F2395022F7A3328F079E37D932A95F1
:1027C000E9F710C07D932A9589F606949795679549
:1027D000379517951794E118F10A430B560BC90B5F
:1027E000D00998F023957E9173957A3308F070E3C1
:1027F0007C932013B8F77E9170617D9330F08395C0
:1028000071E37D9370E32A95E1F71124EF90FF9037
:102810000F911F91CF91DF91992787FD9095089592
:10282000FC010590615070400110D8F7809590959B
:102830008E0F9F1F0895FC016150704001900110A0
:10284000D8F7809590958E0F9F1F08950F931F9333
:10285000CF93DF93FB01238121FD03C08FEF9FEF17
:1028600028C022FF16C04681578124813581421736
:10287000530744F4A081B1819D012F5F3F4F318305
:1028800020838C93268137812F5F3F4F37832683A8
:1028900010C0EB01092F182F0084F185E02D099558
:1028A000892BE1F68E819F8101969F838E83812FF4
:1028B000902FDF91CF911F910F910895AEE0B0E07E
:1028C000E4E6F4E10C949F120D891E8986E08C8366
:1028D0001A8309838FEF9FE79E838D83AE01475E46
:1028E0005F4F6F89788DCE0101960E946E092F810E
:1028F0003885F801E20FF31F10822E96E4E00C9465
:10290000BB12FA01AA27283051F1203181F1E89455
:102910006F936E7F6E5F7F4F8F4F9F4FAF4FB1E0D2
:102920003ED0B4E03CD0670F781F891F9A1FA11DCD
:10293000680F791F8A1F911DA11D6A0F711D811DCE
:10294000911DA11D20D009F468943F912AE0269F93
:1029500011243019305D3193DEF6CF010895462FF2
:102960004770405D4193B3E00FD0C9F7F6CF462FD3
:102970004F70405D4A3318F0495D31FD405241933C
:1029800002D0A9F7EACFB4E0A695979587957795F9
:102990006795BA95C9F700976105710508959B0180
:1029A000AC010A2E06945795479537952795BA9509
:1029B000C9F7620F731F841F951FA01D08950E9401
:1029C0001115A59F900DB49F900DA49F800D911D92
:1029D00011240895B7FF0C94DF140E94DF14821BAA
:1029E000930B0895052E97FB1EF400940E94091581
:1029F00057FD07D00E94201507FC03D04EF40C941D
:102A0000091550954095309521953F4F4F4F5F4F99
:102A1000089590958095709561957F4F8F4F9F4F4A
:102A20000895A29FB001B39FC001A39F700D811DA7
:102A30001124911DB29F700D811D1124911D0895C7
:102A4000A1E21A2EAA1BBB1BFD010DC0AA1FBB1FB2
:102A5000EE1FFF1FA217B307E407F50720F0A21B24
:102A6000B30BE40BF50B661F771F881F991F1A9491
:102A700069F760957095809590959B01AC01BD01BB
:082A8000CF010895F894FFCF87
:102A8800383838000000103810000003003F0103F8
:102A980000010000004C3A256400533A25303264A6
:102AA80000573A25730047616D65204F766572219E
:102AB80000526573706177696E67204E6F77004FBB
:102AC8006666004D6F7267616E204672656172734B
:102AD8006F6E006E39353130373631004F6E000079
:00000001FF
